:10000000004000026F010000390100003B010000C8
:100010003D0100003F010000410100000000000020
:10002000000000000000000000000000430100008C
:100030004501000000000000190F0000910B0000B6
:100040004B0100004B0100004B0100004B01000080
:10005000E10500004B0100004B0100004B010000D6
:100060004B0100004B0100004B0100004B01000060
:100070004B0100004B0100004B0100004B01000050
:100080004B0100004B0100004B0100004B01000040
:100090004B0100004B0100004B0100004B01000030
:1000A0009D0600004B0100004B0100004B010000C9
:1000B000F90B00004B0100004B0100004B01000058
:1000C0004B0100004B0100004B0100004B01000000
:1000D0004B0100004B0100004B0100004B010000F0
:1000E0004B0100004B0100004B0100004B010000E0
:1000F0004B0100004B0100004B01000038190000CB
:1001000000000002600000003819000000400002FA
:10011000000000003819000000800002000000000C
:1001200000020002600B000000400002000000001E
:100130000080000200000000FEE7FEE7FEE7FEE7A9
:10014000FEE7FEE7FEE7FEE7FEE7FEE7002310B569
:10015000934200D310BD1C585C500433F8E70023D1
:100160001A468B4200D370471A500433F9E738B56A
:100170000C4C0D4DAC4205D30C4DAC420AD301F0F2
:10018000A9F8FEE7D4E900010C3454F8042CFFF779
:10019000DDFFEFE754F8080B54F8041CFFF7DFFF0E
:1001A000EBE700BFFC000000200100003801000068
:1001B0000369C1688B4297BF826803F1FF33D2188D
:1001C00002F1FF3294BF501A581A70472DE9F041DE
:1001D000D0E9027405463E1B40689642204488469A
:1001E000144404D901F072F8EC60BDE8F0813246A5
:1001F000E41B01F06BF8224608EB06016868F1E7A2
:100200002DE9F8430646894617464FF00008C568B1
:100210003469B368A54228BFE418013C621B5C1B2B
:10022000BC4228BF3C46944228BF144670684946E9
:100230002844224601F04AF8B3682544AB4208BF7F
:1002400000253F1BA044A144F560E1D14046BDE834
:10025000F883FFFF022310B5104C114AC4E90433A0
:10026000104BA261E3614FF48063A2640E4A2362E3
:10027000E264002310220D49E01DA3626362E36281
:10028000A3656365E365226501F026F80849204609
:1002900001F022F82023A37110BD00BF6406000204
:1002A0004C18000010020002000200025518000065
:1002B00059180000F8B51823174C00FB033503FB51
:1002C00000402544C46A0F46012C164611D024B1C3
:1002D000022C1BD000242046F8BD2846FFF768FFFB
:1002E000B042F8D3324639462846FFF76FFF34460E
:1002F000F1E72846FFF75CFF8642344628BF0446F4
:10030000394622462846FFF761FFE4E72846BDE864
:10031000F840FFF775BF00BF64060002F8B50B4B4D
:1003200005461B780E4617460BB9FFF793FFEFF310
:1003300011844FF0200181F311883A463146284656
:10034000FFF7B8FF84F31188F8BD00BF6406000210
:10035000FFF780BF032A04BF0022034B4FF00000C9
:1003600008BF83F84D2070471006000238B51046CC
:100370001C4623B3CB78022B14D0032B04D0012BC3
:10038000104818BF002038BD0F4D0168224605F106
:100390002B0000F09BFF012385F84C4085F84E3080
:1003A0000020F0E7084D0168224605F10B0000F03F
:1003B0008DFF012385F84B4085F84F30F0E7184654
:1003C000E1E700BF0300040010060002C97870B521
:1003D000022912D0032917D001290CD10E48072178
:1003E00005460E4C14F8016B013900F8016BF9D188
:1003F000156007221A80002070BD094901F10B0029
:10040000106091F84B20F5E7054901F12B001060D1
:1004100091F84C20EEE700BF14060002DC06000253
:1004200010060002F0B5054691B017461E460C4670
:1004300000292FD04B79032B2CD13822002102A880
:1004400000F046FF01238DF810303B6805940293BD
:100450003368CDF818D00393104B02A90793104BC3
:10046000284608930F4B0C930F4B1B88ADF80030B8
:1004700000238DF802300D4B01930D4B1B681B6957
:100480005B689847029B3B60039B3360094B1D6090
:1004900011B0F0BD4FF0FF30FAE700BFCD03000010
:1004A0006D03000055030000601800006218000092
:1004B000640B000210060002014B93F84F007047D6
:1004C0001006000210B5074C94F84B208A4228BF52
:1004D0000A4604F10B0100F0F9FE002384F84F30C6
:1004E00010BD00BF1006000230B4124B1868194648
:1004F00090F8ED20C2B193F84D30CBB907230E4CE4
:100500000A1D14F8015B013B02F8015BF9D10123DC
:1005100081F84D30094B0A4A1B6881211B681C6D0C
:100520000723A44630BC604783F84D20A3F84E2033
:1005300030BC704710060002DC060002640B0002AB
:10054000140600020D4B4FF08041D3F808220C48EE
:1005500022F48062C3F80822D3F8082222F4006251
:10056000C3F808220023074A4B665366CB66D3665E
:1005700040F23B4303600B6013607047004007404C
:10058000E4060002000008404FF08042024B136076
:1005900002F50022136070478F000040074B10B532
:1005A00053F82030064842F00044006803EB810114
:1005B00042F0044218608C608A6010BD2400000282
:1005C000E4060002054B102220B1002183F8041339
:1005D0001A607047C3F88020704700BF00E100E058
:1005E0002DE9F8434FF000480E4BDFF83C909E6D2C
:1005F0001D6E1F6C46EA0504B4FA84F3202B0BD061
:1006000028FA03F2C3F11F0359F8233024EA020445
:10061000002BF1D09847EFE7024B1F649E651D66E3
:10062000BDE8F8830040001C20090002054B064A83
:100630009A60064A1A651A649A651A6601221A6057
:10064000704700BF0040001C00080002FFFF0300CD
:1006500030B501259DF80C4005604568ED07FCD5D7
:10066000456815F00E0F0CD1012C12780AD152B941
:1006700008254A800D8044EA43040223E4B28462E0
:10068000036230BD2AB10224D2000C804A800024CB
:10069000F1E704244A800C801446ECE7A64BF7B53A
:1006A0001868A64942680C7912F0100F4E790B4673
:1006B0001AD0CA7904EB84050132D2B2CA71A049BA
:1006C00029440979914237BF9E4A022202EBC402B3
:1006D00051883EBF41F480615180032210210025E2
:1006E0004160022A7DD166E012F0400516D0CA7939
:1006F00004EB84050132D2B2CA71914929440979C7
:10070000914237BF8F4A022202EBC40251883EBF9A
:1007100041F48061518003224021E0E7D70709D5E9
:100720000F8802F00E02042F00F0D98004D8022FA7
:1007300000F0A78003B0F0BD082F10D0102FF9D122
:100740001423814A03FB0626B37B5B0043F00103BD
:10075000DBB283620223036208230B80EAE7022AEA
:100760001ED11421784A01FB06218D891DB1876AAB
:100770005D8849684F55142505FB062259889289E2
:10078000013191424FF00105B7BF082203221A80C0
:100790002A46BCBF05620025012A5980CAD0A0E7BD
:1007A000CA7904EB84070132D2B2CA716449394470
:1007B000097991420ED31423634A04EB840403FBAA
:1007C0000626337C614A0093B37B22445B49FFF7E2
:1007D0003FFFAFE75B4A02EBC402518841F00801DA
:1007E00051804268D207FCD5042202629A79554FA3
:1007F000002A00F09B80013AD2B29A71002A00F0E0
:1008000095804FF0140C59794F4A013101F00F01D6
:1008100059710CFB01214FF0000CCA7B83F807C013
:100820001A7137F8323007EBC20C013B9BB24361BF
:100830009CF804309CF805C01B0103F070030CF019
:10084000070C43EA0C0343620B7C02EB8202009329
:100850008B7B3E490A443949FFF7FAFE07EBC40493
:10086000A379013BA371002D3FF464AF14235E43D1
:10087000354B9B59002B3FF45DAF03B0BDE8F04012
:100880001847042A18D114212F4A01FB06210A7A9D
:100890008262012202625A88083A92B25A80002A81
:1008A0007FF448AF8A89002A3ED00A7C12B9102210
:1008B0001A803FE70422FBE7CA7904EB8407013280
:1008C000D2B2CA711E49394409799142BFF473AF5B
:1008D0001C4A02EBC402518841F0020180E7042A5D
:1008E0000FD11425184F4A8805FB0675AF8997422A
:1008F0001AD96B689B5C836201231A4403624A80A5
:1009000018E7CA7904EB84070132D2B2CA710C49E4
:10091000394409799142BFF44EAF0A4A02EBC4024E
:10092000518841F004015BE701255AE700221A8053
:100930000123C36092E700BF2C0000026809000297
:1009400018190000720900027C0900021A1900003F
:100950007047FFFF1A4A00EB80001318125C4FF03B
:10096000E050510901F5046150F8211002F01F0216
:10097000D14098781A7901F00101514048B9DA78EC
:100980008A4201D1002070470A225A7001229A70CF
:100990007047D8785A78884209D0013A52B2002A72
:1009A0005A70EFDC0022D9709A7001207047013232
:1009B00052B2092A5A70E5DD00209870704700BFD6
:1009C0003700000270B501250624084EE0B2FFF79B
:1009D000C1FF04EB84033344DB7814F1FF3443EAB2
:1009E0004505F3D2024B1D6070BD00BF3700000209
:1009F000A80B00020028B8BF2D23F0B54FF00A075E
:100A0000BCBF01F8013B40424C1EC1F1020CB0FBDF
:100A1000F7F607FB1605092805F130050CEB040273
:100A20000B4604F8015F08D88818014603EB620200
:100A30009A4204D100230370F0BD3046E7E71C78EA
:100A400011F8015D03F8015B0C70F1E70C4B10B578
:100A500018684FF47A730B4CB0FBF3F02146FFF7A4
:100A6000C9FF204600F059FC214602460020FFF74E
:100A700055FCBDE81040022203490020FFF74EBCA0
:100A8000E00A0002240B00021D190000FFFFFFFF17
:100A900008B5B0B100F0A3FE0BA3D3E9002300F02A
:100AA00003FD0BA3D3E9002300F05EFC00F054FE2D
:100AB0007F28A8BF7F206FF07E039842B8BF1846FA
:100AC000C0B208BDAFF3008000000000005EFA4035
:100AD0003C3C3C3C3C3C6C402DE9F84F0024DFF8AA
:100AE000AC80254E2746C246B1464FF0010B98F820
:100AF000015015F001033DD07B1E042B04D8DFE824
:100B000003F02527292B2B001C4BD3F80401FFF7FA
:100B1000BFFF40B22B0648BF4042C5F3420548BF65
:100B200040B2DDB930700137062F08F1010806F137
:100B30000106DCD100219AF80030ED221C4089F832
:100B400006400846BDE8F84FFFF728BD0C4BDCE730
:100B50000C4BDAE70C4BD8E70020DBE74FF0000343
:100B6000013D0BFA05F564B26DB20028CCBF2C43F1
:100B7000AC43E4B23370D6E7DC0600020080011C0F
:100B800000C0011C0000021C0040021C30000002DA
:100B900010B50021134800F08DF90A23124C226889
:100BA000B2FBF3F103FB112111B9104800F082F9F7
:100BB00064232268B2FBF3F103FB112111B90C4845
:100BC00000F078F94FF47A732268B2FBF3F103FB7B
:100BD000112111B9074800F06DF923680133236032
:100BE00010BD00BFC5090000E00A0002D90A0000DC
:100BF000510900004D0A0000034B044A1B681068AD
:100C00001B68DB68184700BF640B00026006000227
:100C100070B596B000F02EFAFFF79AFBFFF792FC42
:100C2000FFF7B2FC0C220024804B45F630009A609E
:100C300045F620014FF498727D4B7E4D1C605C6040
:100C40009C607D4B1A605A609A60DA601A615A6142
:100C50009A61D8611A625A629A62DA621A635A63B6
:100C60009A63D9631A64596430219964D964196507
:100C700059659C65DC6519665A669A66D8661A6776
:100C80005A679A67DA674FF400526C4B1A605C60DF
:100C90006B4A9C606B4B1A604FF0FF325A609A604F
:100CA000DA601A615A619A61DA611A625A629A626A
:100CB000DA621A635A639A634FF6FF72DA63624A22
:100CC000C3F8C021614AC3F8C421FFF7AFFC01207B
:100CD000FFF778FC4FF4E131204600F051FA20464E
:100CE00000F066FA5A4B5B4A1B6821461B6805A850
:100CF0002B60D2F8083223F40073C2F80832442281
:100D000000F0E6FA544B0494059303238DF8203049
:100D10004FF480532C46514ACDE90623504B0093A3
:100D2000504B0193504BCDE90233504B1B6819686F
:100D300011F08041FBD10846ED22FFF72FFC23681C
:100D40004B4D1B6805AA5B6869462846984780B9E1
:100D500007AB06AA47492868FFF764FB48B94FF07C
:100D60008052454B01211A60236828681B689B68E4
:100D700098470022022300240125404E114633608B
:100D80003F48012300F030F93D4800F00FF92246BA
:100D90002146012334623B4800F026F9394800F02F
:100DA00005F92B46224621463564374800F01CF9E8
:100DB000354800F0FBF822462B462146356633487D
:100DC00000F012F9314800F0F1F800F06BF8304B08
:100DD00083F8234000F0C8F92E4B2F4C1A682A43A1
:100DE0001A601A682D4D42F002021A60FFF77CFB70
:100DF000FFF762FBB8B123685A1C226003B972B6D0
:100E000020212846FFF75EFB202229460020FFF71D
:100E100085FA022222490020FFF780FA2368013B6D
:100E2000236003B962B630BFE0E700BF00400B406B
:100E30000021001C640B000200800F400020001CF9
:100E40000D0EFFFF0080034012DFFF57FFFF3F0042
:100E5000000200030040074000C0001C00800002A8
:100E6000B0180000C21800000000000224000002B8
:100E7000600600020900000200E100E000400140BD
:100E80000080011C00C0011C0000021C0040021C6C
:100E900000ED00E010E000E0AC0B0002BC0A000234
:100EA0001D190000C022024B83F82220704700BFAA
:100EB00000ED00E0F0B5144B144E1B783468DAB244
:100EC000651C356004B972B684235343104CE7188F
:100ED00097F88020D2B20F2A14DC551C03EBC20312
:100EE000EDB287F88050E0500120E2185160094AC5
:100EF000536843F0805353603368013B336003B958
:100F000062B6F0BD0020F7E7B00B0002AC0B0002A8
:100F1000B40B000200ED00E0F8B584230D49002475
:100F200008780A784343B2FA82F21D460A4E520903
:100F30000A70F21892F8807082F88040FFB2BC42CA
:100F400000DBF8BD05EBC403F218F358506898476E
:100F50000134F4E7B00B0002B40B000230B5094CC9
:100F60002568013D256005B962B6036823EA0103DF
:100F70001A4302602368591C216003B972B61046F7
:100F800030BD00BFAC0B0002074B1A68013A1A6073
:100F900002B962B60268114301601A68501C1860F9
:100FA00002B972B608467047AC0B0002074B1A68CC
:100FB000013A1A6002B962B6426822F00402426045
:100FC0001A68511C196002B972B67047AC0B000266
:100FD00010B5041D04212046FFF7D6FF2046BDE8CA
:100FE00010400821FFF7D0BF2DE9F84F06460D4607
:100FF0001F461446FFF7ECFF00239F424FF0010706
:1010000014BF4FF4806A4FF4006A05EB070807FA33
:1010100005F907FA08F8736449EA0802394606F147
:101020004C0014BF4FF4006B4FF4806BFFF796FF3A
:10103000A20102F4707242EA0A0A06EBC5014AF400
:10104000C043C1F8043340F6016342EA0B0206EBE9
:10105000850542F4C042C1F80C23C1F80073C1F801
:101060000873C6F80890C5F80092C5F8048233608A
:10107000BDE8F88F0121394BD3F8082222F4001281
:10108000C3F80822C3F8C010D3F8242142F4005258
:10109000C3F82421C3F8A010D3F8082242F4800238
:1010A000C3F808224522C3F89821D3F8082222F475
:1010B0008002C3F808224FF4807200BF013AFCD1CD
:1010C000D3F89C21D007FBD50222C3F8842001224B
:1010D000C3F8A4204322C3F8A021D3F8082222F4A5
:1010E0000002C3F808221D4A1346D2F8A411C9070A
:1010F000FBD50121C2F8A8104521C2F8A811D2F8E9
:10110000081221F08071C2F80812D3F8AC21D2077E
:10111000FBD502220321C3F88820C3F88C10C3F842
:1011200098200122C3F8CC20C3F8D020C3F8D820DF
:10113000C3F8D420C3F8EC20C3F8F020C3F8F8209B
:10114000D3F8C410064A0A43C3F8C420D3F8C81021
:10115000044A0A43C3F8C820704700BF0040074054
:101160001BFA15083E228200034B1A6842F0040263
:101170001A60024A5A60704710E000E03F1901000F
:101180000C235843084B10B51C584FF4FA735943BD
:10119000064800EB5102B2FBF1F14B434A1E92B2FA
:1011A0002262B0FBF3F010BD2C1900000020AA440D
:1011B0000C234FF2FF414343394A2DE9F04FD758F2
:1011C000384B9446C3F82811A3F550339F4265D09D
:1011D00003F580439F420CBF01230223A0254FF457
:1011E00000014FF0010E4543DFF8DC902E4C09EB77
:1011F000050609F1100286F89430A9502B4AE45CE8
:10120000D0542B4A2404D25C2A4902F1400A04F447
:10121000E0240EFA02F844EA0E044FEA0A1AC1F872
:10122000208041F80A40244C120104EB020B06F125
:10123000930AC6F808A0CBF808A007F1140AC6F86C
:1012400004A0F660CBF80C601C4E0A4449F8056017
:10125000CBF804A0C2F808640A6F48EA02020A67E1
:10126000174AD55C0EFA05F20A62164A04EB051419
:10127000D35C05F140021B0403F4E02343EA0E03B0
:1012800012018B5007F11C03A3600023E3600C23C1
:1012900003FB00C083683B60BDE8F08F00239DE73F
:1012A0002C19000000400740231900005A000002DA
:1012B000201900000040001C0008000203407F00CD
:1012C0002619000029190000C00C000200F08BBA9A
:1012D00000F0A3BAFFF79CBC40EA01039B0710B5DE
:1012E00013D10246043951F8043FA3F1013424EA32
:1012F000030414F0803F05D0D9B202F8011B59B1A4
:101300001B12F9E742F8043BEDE7421E11F8013BDE
:1013100002F8013F002BF9D110BD10B5421C830724
:10132000044616D1234654F8041BA1F1013020EAEB
:10133000010010F0803FF5D011F0FF0F11D011F433
:101340007F4F0CD011F47F0F14BF23460333981A3C
:1013500004E010F8013B002BE1D1801A10BD0233EC
:10136000F5E70133F3E7FFFF2DE9F043C1F30A5539
:1013700040F2FF7C81EA030635B1654504D0C3F332
:101380000A540CB1644506D1454A480090425BD9E5
:101390000020444956E0A5EB040C440D44EAC12169
:1013A00041F00045510D41EAC32141F000494D454E
:1013B0004FEAC0244FEAC22808BF444521BF630852
:1013C00043EAC5736A081C4628BF15464FF0000360
:1013D0004FF035024FEA580034BF0CF2FD3C0CF2DE
:1013E000FE3C40EAC9704FEA59018D4208BF844271
:1013F0004FEA430304D3241A65EB010543F00103CC
:1014000024196D41212A08BF1F46013AEDD18D42B2
:1014100008BF844202D3013308BF013740F2FD7197
:101420008C4506F0004204D802EB0C52D119184644
:1014300008E0BCF1000FA4BF42F0FF4242F4E0021A
:1014400000201146BDE8F0835C0014F5001F9FD812
:10145000194312EA410301D11249E8E710EA0205F3
:1014600006F0004302D119462846EBE7224005D199
:1014700043F0FF4141F4E0011046E3E714F5001F9B
:1014800005D043F0FF41002041F4E001DAE710F518
:10149000001F4FF000003FF47CAF1946D2E700BFB9
:1014A0000000E0FF0000F87F944691EA0302F0B4E8
:1014B00005460E4606D503F100452B46F0BC6246B4
:1014C00000F0C6B8994203D3604508D8994206D1C6
:1014D00002F10042564053402A466546944640F287
:1014E000FF71370D27F40062180D8A42A7EB000444
:1014F00000F0A080944200F09980C6F31302C3F379
:1015000013031F2C42F4801143F480134FD823FAA5
:1015100004F2891A00F12002D21B93402CFA04F441
:101520001C432C1B38BF01F1FF311CFA02F3254686
:1015300003D05B42651E04B9013911F4C01F54D1B8
:10154000EA0FDB0F42EA410243EA450352EA030491
:101550006DD0BC1E510B24D0510C01BF190F41EAB4
:1015600002121B01043CD10C01BF990F41EA820217
:101570009B00023C110D02BFD90F41EA420204F167
:10158000FF344FEAD67108BF5B00B1EBD42F4FF0A8
:10159000000006BF184602EB045106F00041F0BC03
:1015A0007047190E41EA02221B02083CD2E7352C93
:1015B0001BD8203C23FA04F2AA1AC4F1200003FA33
:1015C00000F338BF01F1FF312CFA04F45FEA0C603C
:1015D000154643EA040306D043F0FF035B42551E61
:1015E0001AB9013901E0002BF8D1CA0209D4013F30
:1015F0007A050FD0EA0F42EA4101DA0F42EA4505C7
:101600005B00002B21F480124FEA075405DB11190F
:101610002846C4E739051046C1E7013508BF013245
:10162000B3F1004F08BF25F00105F0E75CB9214692
:101630002046B4E733034FF0000001D00349AEE782
:101640000CB90249F4E73146E2E700BF0000F87F39
:1016500091EA030FF0B405460E4605D503F10045A7
:101660002B46F0BCFFF720BF994238BF1E4640F220
:10167000FF7C3EBF0B4615460246300D20F4006746
:10168000190D6745A0EB01045CD0BC4255D0C6F3F0
:101690001307C3F313031F2C47F4801743F480137D
:1016A00027D82031091A23FA04FC22FA04F48B40CB
:1016B0002343ED18674428BF013702FA01F3BA0249
:1016C0002BD5013508BF01370BB925F00205360DC2
:1016D000360506EB5706730013F5001F2BBF421C9F
:1016E00031460020FF0734BF47EA55001105F0BC22
:1016F0007047352CE3D8203C23FA04F16D18C4F16F
:10170000200103FA01F322FA04F428BF013723432E
:10171000120618BF43F0FF03D1E7002B00F1FF32A0
:1017200007DA013508BF0137B3F1004F08BF25F0D4
:10173000010507EB02512846D9E74CB906F00041F4
:101740002046D4E733034FF0000001D00149CEE733
:101750003146F0E70000F87FCB0243EA505040F2F8
:101760001E43A3EB115340F00040FF2B20FA03F07F
:1017700011D913F4E06F01D14042704711F080405D
:1017800009D04B0013F5001F04D86FF0004000EBA8
:10179000D17070470020704720B9034602461046BA
:1017A00019467047030C0CBF000401F18071030E51
:1017B0000CBF000201F50001030F0CBF000101F591
:1017C0008001830F0CBF800001F500110028ACBF21
:1017D000400001F5801101EBE0234205DFE74FF007
:1017E0008041FFF7D9BF40EA0103DB0703460CD471
:1017F0000346043A22BF51F804CB43F804CBB2F1BC
:101800000402F7D2043208BF7047013A24BF11F82E
:1018100001CB03F801CBF8D87047034613F0030F50
:101820000ED101F0FF0141EA012141EA0141043AF0
:1018300024BF43F8041BB2F10402F9D202F10402FE
:10184000013A24BF03F8011BFAE770475465726D33
:10185000696E616C0052545400534547474552002D
:101860004C0005010904A1010904A1000930093156
:101870000932093309340935750895061581257F24
:10188000810305091901290815002501750195082D
:1018900081030903150026FF0075089520910209B0
:1018A00003150026FF0075089520B102C0C0FFFF98
:1018B0001201000200000040C91F658700010102FB
:1018C0000301040309041603300078006400650076
:1018D0006100640062006500650066000C03520050
:1018E00078005500530042001603330037003300E0
:1018F00035003900320038003500350039001A0350
:1019000048004900440020004A004F00590053009D
:101910005400490043004B00003C0100030D0A0045
:10192000000204030200010305030200000004405A
:081930000000000005000000AA
:101938000902220001010080FA09040000010300E5
:101948000004092111010001224C00070581030848
:10195800000A00FF000000400000084000000540A9
:10196800FF01010305000018000000011900000034
:101978000100000000010C000000010B0000000144
:101988000A000000011200000001000102FFFFFF31
:040000030000016F89
:00000001FF
